011070302P0020044.10.11   01010000000000000000000000004747103004201807012018073100004077380120180829              EUR                                                                                                                                                                                                 
020000000000019999000060101818353619                 1932020611Test                               0                                   BGM   19999XX         00158                                                                                                                                                     
040000000000029999000060101818353619                     1201807050125000  0003N013000009010000000000001600000101000        00088002388000020180614010270100000000000155000004650C000000003720C0000004077380000000100000040772000000001                                                                               
040000000000039999000060101818353619                     1201807120125000  0003N013000009010000000000001600000101000        00088002388000020180614010270100000000000155000004650C000000003720C0000004077380000000200000040772000000002                                                                               
040000000000049999000060101818353619                     1201807050125001  0001N013000009010000000000001600000101000        00088002388000020180614010270100000000000255000002550C000000002040C0000004077380000000300000040772000000003                                                                               
040000000000059999000060101818353619                     1201807120125001  0001N013000009010000000000001600000101000        00088002388000020180614010270100000000000255000002550C000000002040C0000004077380000000400000040772000000004                                                                               
99000001000000000004000000000000500000011520C                                                                                                                                                                                                                                                                         
